:020000040800F2
:100000009007002001010008BB15000871140008CA
:10001000B915000891010008A119000800000000AE
:10002000000000000000000000000000BF150008F4
:100030009301000800000000BD150008C11500086C
:100040001B0100081B0100081B0100081B01000820
:100050001B0100081B0100081B0100081B01000810
:100060001B0100081B0100081B0100081B01000800
:100070001B0100081B0100081B0100081B010008F0
:100080001B0100081B0100081B0100081B010008E0
:100090001B0100081B0100081B0100081B010008D0
:1000A0001B0100081B0100081B0100081B010008C0
:1000B0003D1600081B0100081B0100081B01000879
:1000C0001B0100081B0100081B0100081B010008A0
:1000D0001B010008691900081B0100081B0100082A
:1000E0001B0100081B0100081B010008DFF80CD0F1
:1000F00000F03CF8004800473D1A00089007002037
:100100000648804706480047FEE7FEE7FEE7FEE7B1
:10011000FEE7FEE7FEE7FEE7FEE7FEE73B16000828
:10012000ED00000840EA01039B0703D009E008C97D
:10013000121F08C0042AFAD203E011F8013B00F8AC
:10014000013B521EF9D27047D2B201E000F8012BF8
:10015000491EFBD270470022F6E710B513460A4647
:1001600004461946FFF7F0FF204610BD064C074D28
:1001700006E0E06840F0010394E807009847103477
:10018000AC42F6D3FFF7B6FF101B0008301B000887
:10019000FEE7704772B6FEE710B590F82110002216
:1001A000022905D00421816380F82020012010BDA0
:1001B00001680B6823F00E030B6001680B6823F0E5
:1001C00001030B6090F84030C46B012101FA03F386
:1001D000636080F8211080F82020104610BD0000D8
:1001E00010B590F821100024022903D00421816366
:1001F00001243DE001680A6822F00E020A600168ED
:100200000A6822F001020A601A4A0168914201D18B
:10021000012121E0174A1432914201D110211BE043
:10022000144A2832914201D1891515E0114A3C3215
:10023000914201D189140FE00E4A5032914202D10D
:100240004FF4803108E00B4A6432914202D14FF4FE
:10025000801101E04FF08071064A083A5160012197
:1002600080F82110002180F82010416B01B18847EF
:10027000204610BD080002402DE9F84FDFF8B89184
:10028000002409F1040A0AF1040B23460F270BF19D
:10029000040EC9E00125A5402A40AA427DD1674E3F
:1002A000D1F804C0ACEB0608B44532D014DCBCF184
:1002B000030F3AD009DCBCF1000F2AD0BCF1010FCA
:1002C0001CD0BCF1020F31D11DE0BCF1110F17D0D1
:1002D000BCF1120F2AD119E0B8F5881F19D006DC3D
:1002E000B8F5803F15D0B8F5801F1FD111E0B8F5E3
:1002F000001F0ED0B8F5041F18D10AE0CB6815E036
:10030000CB681B1D12E0CB6808330FE0CB680C33C1
:100310000CE08B682BB1012B4FF0080303D0456133
:1003200004E0042302E0056100E00023FF2A01D875
:10033000064601E000F104064FEA840501D9A5F163
:100340002005D6F8008007FA05FC28EA0C0803FA15
:1003500005F548EA0508C6F800804D68ED0062D54D
:10036000374DAE6946F00106AE61AD6924F0030673
:1003700005F001050095334D06EB050CDCF808503F
:10038000A607360F07FA06F825EA0805DFF8B88051
:10039000404503D14FF0000817E044E0DFF8AC809F
:1003A000404502D14FF001080FE0DFF8A48040453E
:1003B00002D14FF0020808E0DFF89880404502D1F2
:1003C0004FF0030801E04FF0040808FA06F848EA85
:1003D0000508CCF808804D68D9F80060ED034D465B
:1003E00001D5164300E096432E604D68DAF80060B0
:1003F000AD03554601D5164300E096432E604D6887
:10040000DBF80060ED025D4601D5164300E096433F
:100410002E604D68DEF80060AD02754601D51643CA
:1004200000E096432E60641C0D682A46E5407FF488
:1004300031AFBDE8F88F000000040140000011104A
:10044000001002400000014000080140000C014083
:100450000010014000140140C26821EA02030A4072
:1004600043EA0241016170470AB101617047090422
:10047000FBE700000148806870470000040000208E
:1004800002488168027811448160704704000020AE
:10049000074810B5016841F010010160032000F029
:1004A00075F8002000F006F800F024F8002010BDD8
:1004B0000020024070B50D4D04464FF47A71287843
:1004C000B1FBF0F00A490968B1FBF0F000F0E4FB81
:1004D00048B9102C07D200222146501E00F036F8F1
:1004E00000206C6070BD012070BD00000400002081
:1004F000100000200C4808B5816941F001018161BC
:10050000816901F001010091C16941F08051C1612F
:10051000C06900F0805000900448416821F0E0611B
:1005200041F08061416008BD0010024000000140C0
:10053000002809DB00F01F020121914040098000E2
:1005400000F1E020C0F8001170470000F0B40E4B3D
:100550001B680C46C3F30223C3F10705042D00D921
:100560000425191D072901D2002300E0DB1E012606
:1005700006FA05F1491E214099409E40761E16401C
:100580003143F0BC01F016BA0CED00E0064900F072
:10059000070208684FF6FF03184040EA0220034AAA
:1005A00010430860704700000CED00E00000FA0501
:1005B0002DE9F04186B0040004D094F8A90200258A
:1005C00020B108E0012006B0BDE8F08184F8A8520F
:1005D000204600F05BF8032084F8A902206801F0AF
:1005E000D6F904F11001142288466846FFF79AFDF7
:1005F00094E80F0001F0BEF90226D0BB002120686C
:1006000001F0CCF9002001270FE000BF00EB8001D2
:1006100004EBC10181F8297001F8280FC881CD7061
:100620000D614D61401CC0B28D6161688142EDD8A1
:10063000002011E000EB800104EBC10181F8695159
:1006400081F8680181F86B51C1F87851C1F87C518B
:10065000401CC0B2C1F8805161688142EAD81422BE
:1006600041466846FFF75EFD94E80F0001F086F909
:1006700010B184F8A962A5E784F8245084F8A9721F
:10068000206801F079F900209DE7000008B50068B6
:100690000649884208D10648C16941F40001C16198
:1006A000C06900F40000009008BD0000005C00403C
:1006B000001002402DE9F84305460078354CC0078C
:1006C00054D0E0690026C00008D4E06940F08050B2
:1006D000E061E069012600F0805000902E4801683A
:1006E000C90512D40168804641F480710160FFF7AA
:1006F000C1FE074605E000BFFFF7BCFEC01B642833
:1007000023D8D8F80000C005F6D5206A10F4407050
:1007100021D0A98801F4407181421CD0206A1F4970
:10072000012220F440700A6000220A602062C007A3
:1007300011D0FFF79FFE074641F2883808E000BF5E
:10074000FFF798FEC11B414502D90320BDE8F8839D
:10075000206A8007F4D5206A696820F44070084355
:1007600020621EB1E06920F08050E06128788007A7
:1007700005D56068A96820F4404008436060287887
:10078000C00605D56068E96820F480000843606011
:100790000020DBE7001002400070004040044242AD
:1007A0002DE9F0470F46050061D0434E306800F058
:1007B0000700B84209D2306820F0070038433060A3
:1007C000306800F00700B84251D128683B4C8107DF
:1007D00012D5400703D5606840F4E0606060287877
:1007E000000703D5606840F4605060606068A968E5
:1007F00020F0F000084360602878C00728D06868BF
:10080000012810D02168022810D0890700292EDA8B
:10081000616821F0030101436160FFF72BFE804610
:1008200041F288390DE021688903EFE78901EDE79E
:10083000FFF720FEA0EB0801494502D90320BDE8DF
:10084000F0876068696800F00C00B0EB810FEFD1B1
:10085000306800F00700B8420BD9306820F007007C
:1008600038433060306800F00700B84201D0012002
:10087000E5E72878400705D56068E96820F4E0607E
:10088000084360602878000706D56068296920F46D
:10089000605040EAC100606000F038F86168084AC2
:1008A000C1F30311515CC84006490860064800685E
:1008B000FFF700FE0020C2E70020024000100240C7
:1008C000F81A00081000002008000020044805491C
:1008D00000684968044AC1F30221515CC84070476E
:1008E0001000002000100240081B000804480549C1
:1008F00000684968044AC1F3C221515CC84070478E
:100900001000002000100240081B000812A185B052
:100910000FC98DE80F0014A0144A006804905168B4
:10092000134801F00C03042B10D0082B0ED1C1F397
:100930008343C9031DF803000AD5516804AAC1F313
:100940004041515C0A4A5043B0FBF1F005B070479A
:1009500008494843FAE700000203040506070809AE
:100960000A0B0C0D0E0F10100102000000100240C7
:1009700000127A0000093D002DE9F84F040070D004
:100980002078C04DC00749D06868C0F381000128B5
:1009900007D06868C0F38100022809D16868C003E5
:1009A00006D52868800339D560680028E7D035E08F
:1009B0006068B0F5803F0BD010B1B0F5A02F11D01A
:1009C000286820F480302860286820F4802002E025
:1009D000286840F480302860606890B1FFF74AFDD5
:1009E00006460AE0286840F480202860F0E700BF4F
:1009F000FFF740FD801B642873D828688003F7D573
:100A00000CE0FFF737FD064605E000BFFFF732FDBB
:100A1000801B6428F0D828688003F7D420789A4E89
:100A200080074FF001094FF0000839D5686810F0D1
:100A30000C0F07D06868C0F38100022809D16868EC
:100A4000C00306D42868800714D52069012808D17E
:100A500010E02069B0B1C6F80090FFF70BFD074623
:100A600005E00AE1FFF706FDC01B0228C4D828688C
:100A70008007F7D52868616920F0F80040EAC100D6
:100A800028600DE0C6F80080FFF7F4FC074604E09C
:100A9000FFF7F0FCC01B022823D828688007F7D492
:100AA000207800072CD57948A169D9B1C0F8009009
:100AB000FFF7E0FC074604E0FFF7DCFCC01B022860
:100AC0000FD8686A8007F7D571484FF4FA5100686B
:100AD000B0FBF1F0009000BF0098411E0091FAD2E7
:100AE0000EE080E0C0F80080FFF7C4FC074604E099
:100AF000FFF7C0FCC01B022875D8686A8007F7D4CE
:100B00002078400760D5E8690027C00008D4E8696C
:100B100040F08050E861E869012700F080500090C3
:100B20005C480168C90513D40168834641F48071AB
:100B30000160FFF79FFC824606E000BFFFF79AFCCA
:100B4000A0EB0A0064284ED8DBF80000C005F5D5FC
:100B5000E06801280AD008B1052813D0286A20F0DF
:100B600001002862286A20F0040002E0286A40F0B0
:100B700001002862E06841F2883B98B1FFF77AFCF7
:100B800082460BE0286A40F004002862EEE700BFCE
:100B9000FFF770FCA0EB0A0159455AD8286A800774
:100BA000F6D50CE0FFF766FC824605E0FFF762FC35
:100BB000A0EB0A0159454CD8286A8007F6D41FB12A
:100BC000E86920F08050E861E06988B36968C1F3A2
:100BD0008101022944D00228C6F8608004D0FFF7C2
:100BE00049FC044638E034E0FFF744FC074604E0E3
:100BF000FFF740FCC01B02282BD828688001F7D4DF
:100C0000206AB0F5803F05D16868A16820F4003003
:100C100008436860D4E908010843696821F4741145
:100C200008436860C6F86090FFF724FC044606E0BD
:100C300025E000BFFFF71EFC001B022809D828682A
:100C40008001F7D51BE000BFFFF714FC001B022852
:100C500002D90320BDE8F88F28688001F4D40EE0A3
:100C60000128F7D06868226A00F48031914204D1EB
:100C7000616A00F47010884201D00120EAE7002088
:100C8000E8E70000001002400000424280044242B7
:100C9000100000200070004010B5401EB0F1807FB1
:100CA00001D3012010BD4FF0E02460610F216017D7
:100CB00000F080FE0020A06107202061002010BD10
:100CC0007047704770B590F83C20012A26D0012467
:100CD00080F83C40022280F83D2003685A689D68F5
:100CE00022F070060A6832435A600D4B02689A423D
:100CF00008D0B2F1804F05D00A4B9A4202D00A4B7D
:100D00009A4204D1496825F080031943916080F824
:100D10003D40002180F83C10084670BD022070BDA7
:100D2000002C0140000400400008004010B5040001
:100D300003D094F83D0010B107E0012010BD002061
:100D400084F83C00204600F01FF8022084F83D00A3
:100D5000211D206800F078FC012084F8460084F80A
:100D60003E0084F83F0084F8400084F8410084F895
:100D7000420084F8430084F8440084F8450084F875
:100D80003D00002010BD000008B50068B0F1804FA4
:100D900012D10A48C16941F00101C161C069002254
:100DA00000F00100009011461C20FFF7CFFBBDE8CA
:100DB00008401C20FFF7BCBB08BD0000001002402B
:100DC00090F83D10012901D001207047022180F8E0
:100DD0003D100168CA6842F00102CA6000680B4910
:100DE000884208D0B0F1804F05D00949884202D02E
:100DF0000849884204D1816801F00701062903D01F
:100E0000016841F00101016000207047002C0140A1
:100E1000000400400008004070B5044690F83C0013
:100E2000012817D0012584F83C50022084F83D00A9
:100E30002068826822F0770222F47F42826008688C
:100E4000502830D00DDC20284DD005DC98B3102878
:100E50003BD148E0022070BD302844D0402834D136
:100E600039E0602828D0702806D0B0F5805F2CD0FB
:100E7000B0F5005F29D10AE0CB68D1E901212068F3
:100E800000F018FC2068816841F0770109E0CB6828
:100E9000D1E90121206800F00DFC2068816841F44F
:100EA0008041816011E0CA684968206800F014FC44
:100EB0005021206807E016E0CA684968206800F001
:100EC0001CFC6021206800F0FFFB84F83D500020EE
:100ED00084F83C0070BDCA684968206800F0FCFBDB
:100EE00040212068EFE7226801461046EBE7704793
:100EF00070B50446006801694FF00005C9438907D1
:100F000015D4C168C943890711D4E91E01610120C4
:100F10002077206880698007204602D0FFF7E7FF2E
:100F200004E000F098F8204600F096F82577206855
:100F30000169C943490717D4C168C943490713D494
:100F40006FF004010161022020772068806910F4AD
:100F5000407F204602D0FFF7CAFF04E000F07BF894
:100F6000204600F079F8257720680169C943090710
:100F700016D4C168C943090712D46FF00801016192
:100F8000042020772068C0698007204602D0FFF740
:100F9000AEFF04E000F05FF8204600F05DF8257732
:100FA00020680169C943C90617D4C168C943C90685
:100FB00013D46FF010010161082020772068C06908
:100FC00010F4407F204602D0FFF791FF04E000F0CC
:100FD00042F8204600F040F8257720680169C943AF
:100FE000C90708D1C168C943C90704D1891E016175
:100FF000204600F033F820680169C943090609D486
:10100000C168C943090605D46FF08001016120461B
:10101000FFF756FE20680169C943490609D4C16833
:10102000C943490605D46FF040010161204600F034
:1010300027F820680169C94389060BD4C168C943F0
:10104000890607D46FF0200101612046BDE8704099
:10105000FFF737BE70BD7047704700000068B0F101
:10106000804F07D104484078012803D1410203484A
:10107000FFF7F2B97047000000000020000C0140AB
:101080007047704770470000F8B502680446106862
:10109000D168536910F00F0F4FF0000554D003F0E2
:1010A000010601F4907737435FD0C20705D0CA0527
:1010B00003D5226C42F001022264420705D5DA070B
:1010C00003D0226C42F002022264820705D5DA07BF
:1010D00003D0226C42F004022264020707D501F01B
:1010E0002002324303D0226C42F008022264226CB8
:1010F000002A35D0800604D5880602D5204600F0A7
:101100002EFB20684069216CC0F3801001F00801BB
:101110000143204625D000F00AFB206841694906BA
:101120001BD5416921F040014161A06BA8B158492C
:101130004163A06BFFF754F8002811D0A06B416BFE
:1011400001B0BDE8F040084783060ED58B060CD5EC
:101150002046BDE8F84000F002BB2046FFF792FFB2
:10116000F8BDFFF78FFF2564F8BD266B2023012E05
:1011700052D1C60650D5CE064ED5106850680090A4
:10118000506940062AD5A16B086840680004000C2D
:10119000EAD0A68D8642E7D9E0858869202818D054
:1011A000D06820F48070D0602068416921F001018E
:1011B00041612068416921F04001416184F83E307D
:1011C00025632068C16821F01001C160A06BFEF7A3
:1011D000E3FFA08DE18D401A81B219E0A08DE18D71
:1011E000401A81B2E08D0028BED00029BCD0D06862
:1011F00020F49070D0602068426922F001024261C0
:1012000084F83E3025632068C26822F01002C26074
:101210002046FFF736FFF8BD05062BD50D0629D56C
:1012200094F83D002128F6D1A068B0F5805F01D187
:101230002069B0B1206A411C2162216800784860B1
:10124000E08C401E0004000CE084E4D12068C168FA
:1012500021F08001C1602068C16841F04001C16097
:10126000F8BD206A0088C0F308005060206A801C26
:101270002062E5E74006F3D54806F1D5D16820465F
:1012800021F04001D16084F83D3000F0F0F8F8BD65
:101290001F17000870B5040004D094F83D00002525
:1012A00010B106E0012070BD84F83C50204600F0EB
:1012B00023F8242084F83D002068C16821F40051FF
:1012C000C160204600F0A6FA2068016921F490412F
:1012D00001612068416921F02A0141612068C168EB
:1012E00041F40051C1602564202084F83D0084F859
:1012F0003E00002070BD000030B585B00024009491
:101300000194029403940068184988422CD118482B
:10131000816941F480418161816901F480410491D6
:10132000816941F0040181618069124D00F004007F
:1013300004904FF40070009002200190032003906D
:1013400069462846FEF798FF2815CDE9000469464E
:1013500028460294FEF790FF002211462520FFF751
:10136000F5F82520FFF7E4F805B030BD003801405E
:10137000001002400008014090F83E30202B0ED1B2
:1013800059B152B190F83C30012B08D0012380F8BC
:101390003C300023036300F099BA0120704702201B
:1013A0007047000000680349884202D102490120C9
:1013B0000870704700380140000000202DE9F84314
:1013C000044690F83D001F4616460D4620284CD195
:1013D000C5B1BEB194F83C00012846D0012084F884
:1013E0003C004FF00008C4F84080212084F83D0004
:1013F000FFF740F8A6848146E684A068B0F5805FD8
:1014000003D004E00120BDE8F883206928B12E460E
:101410005FF0000584F83C800EE00026FAE78021AA
:10142000204600F06EFAA0B9AEB116F8010B2168A3
:101430004860E08C401EE084E08C4B464FF0000298
:1014400000970028EBD14FF04001204600F059FAF8
:1014500030B10320D7E735F8020BC0F30800E6E708
:10146000202084F83D000020CDE70220CBE7704724
:10147000FEE7000070B586B000241848009401947F
:1014800002940394816941F020018161816901F036
:1014900020010491816941F004018161816901F0B9
:1014A00004010491816941F00801816180690C4E59
:1014B00000F008004FF400750490002229463046E1
:1014C000FEF7D2FF01200095CDE901040220039030
:1014D00069463046FEF7D0FE06B070BD00100240EF
:1014E000000C014010B586B0002417480094019408
:1014F0000294039404944FF080410594016041F6F6
:101500001F41C0E9011440F2F311C0E90314802126
:101510008161FFF70BFC08B1FEF73CFE4FF48050F1
:10152000009069460848FFF777FC08B1FEF732FEE5
:10153000049404A904480594FFF7C4FB002801D0D3
:10154000FEF728FE06B010BD180000200C4810B5AC
:101550000A4901604FF4E1314160002181600C22B1
:10156000C160C0E904128161C161FFF793FE0028E8
:1015700003D0BDE81040FEF70DBE10BD003801409D
:10158000600000200B4810B5094901600821416046
:101590000221816000218161C1610162FFF708F8C9
:1015A000002803D0BDE81040FEF7F4BD10BD0000D8
:1015B000005C0040A4000020FEE7FEE77047704793
:1015C000FEF75EBF30B593B028216846FEF7C3FD35
:1015D00014210AA8FEF7BFFD002401200F941094E7
:1015E0001194010412948DE8130004904FF4E0105C
:1015F000CDE90810022507956846FFF7BDF908B147
:1016000072B6FEE70F20CDE90A054FF48060CDE900
:101610000C4002210AA80E94FFF7C2F808B172B676
:10162000FEE710200F9012940FA8FFF743F8002850
:1016300001D072B6FEE713B030BD70470148FFF726
:1016400057BC000018000020F0B50268164B174C7C
:10165000174D4FF08047984205D0B84203D0A042C2
:1016600001D0A84203D122F070064A683243984262
:1016700005D0B84203D0A04201D0A84203D122F441
:101680004074CA6822434C6922F0800222430260FF
:101690008A68C2620A688262984201D1096901635C
:1016A00001214161F0BD0000002C01400004004018
:1016B0000008004010B5846842EA032224F47F4405
:1016C0000A432243826010BD826822F070020A43FE
:1016D00042F007018160704710B5036A046A24F084
:1016E00001040462846924F0F00444EA021423F043
:1016F0000A020A438461026210BD10B5036A23F036
:10170000100303628369046A23F4704343EA0232DC
:1017100024F0A00343EA01118261016210BD10B5FB
:10172000406A0021C185C184FFF7ACFC10BD01688F
:10173000CA6822F49072CA6001684A6922F0010204
:101740004A61016B012904D10168CA6822F01002C4
:10175000CA60202180F83E1000210163704708B55F
:1017600090F83E10222901D0022008BD82684FF473
:1017700080539A4201D1016921B1816A9A421BD0FA
:101780004AB10AE00268816A5268C2F308020A801C
:10179000816A891C08E0026972B10268526802F02D
:1017A0007F020A70816A491C8162C18D491E090449
:1017B000090CC18503D019E002685268F1E701689D
:1017C000CA6822F02002CA600168CA6822F48072E6
:1017D000CA6001684A6922F001024A61202180F84A
:1017E0003E10016B012903D0FFF7DCFD002008BD8E
:1017F000002101630168CA6822F01002CA60016812
:101800000A68D20602D50A6849680091818DFFF7FF
:1018100038FCEBE770B5044600680169E26821F422
:101820004051114301612169A0680843616908437F
:101830002168CA6841F20C639A430243CA60206877
:101840004169A26921F44071114341611E49206838
:10185000884202D1FFF74AF801E0FFF737F800EBC2
:10186000C00101EB0012606864218000B2FBF0F35C
:10187000B3FBF1F36FF018067343B2FBF0F5B2FB64
:10188000F0F605EB8305322303EB0515B5FBF1F507
:10189000B6FBF1F605F0F00505EB0615B2FBF0F628
:1018A000B2FBF0F0B0FBF1F06FF01802504306EB22
:1018B000800003EB0010B0FBF1F0216800F00F0096
:1018C0002844886070BD0000003801408162828534
:1018D000C28500210164222280F83E2080F83C105D
:1018E0000168CA6842F48072CA6001684A6942F0BD
:1018F00001024A610068C16841F02001C160002016
:1019000070472DE9F041984617460E460446069D5D
:101910001DE0681C1BD02DB1FEF7ACFDA0EB08004C
:10192000A84214D92068C16821F4D071C160206830
:10193000416921F001014161202084F83D0084F8D3
:101940003E00002084F83C000320BDE8F0812068C0
:10195000006836EA000004D00020B842D9D0002048
:10196000F3E70120F9E700000148FFF78DBB000015
:10197000600000200020704700207047012120F8FF
:10198000401F00210180818001820846704730F8A5
:10199000401F21F43F410180002070470020704724
:1019A000FEE70000014A024900F023B8251A0008AA
:1019B000140000200907090E002804DB00F1E020D4
:1019C00080F80014704700F00F0000F1E02080F86C
:1019D000141D704702E008C8121F08C1002AFAD17E
:1019E00070477047002001E001C1121F002AFBD19F
:1019F00070472DE9F04116460F460446002503E0E6
:101A00003946B047641C6D1C20780028F8D1284660
:101A1000BDE8F0810D2803D00A2801D0202800D18C
:101A20000020704713B54FF6FF7301226946024844
:101A3000FFF7C4FC00981CBD60000020FEF728FDE5
:101A4000FFF7C0FDFFF716FDFFF780FDFFF79AFDDA
:101A5000FFF748FD01221A491A48FFF78DFC1A4882
:101A6000FFF7AEF9194E4FF40074002221463046BC
:101A7000FEF7FAFC124F0025A1464FF00108BC1EEC
:101A800020780128FCD125703878FFF7C3FF59284A
:101A900002D04E2804D00CE084F801800CA006E0AF
:101AA0006570002249463046FEF7DEFC0DA0FFF7C8
:101AB00079FF012202490348FFF75EFCE0E70000DE
:101AC000020000206000002018000020000C0140EF
:101AD000546865204C4544206973204F4E20210DE9
:101AE0000A000000546865204C4544206973204F6B
:101AF000464620210D0A0000000000000000000002
:101B000001020304060708090000000001020304A3
:101B1000301B00080000002018000000D419000845
:101B2000481B00081800002078070000E41900088E
:101B30000000000001000000100000000000000094
:081B40000024F4000000000085
:04000005080000ED02
:00000001FF
